{
	"contracts/AddFiveStorage.sol": {
		"AddFiveStorage": {
			"abi": [
				{
					"inputs": [
						{
							"internalType": "uint256",
							"name": "",
							"type": "uint256"
						}
					],
					"name": "ListOfPeoples",
					"outputs": [
						{
							"internalType": "uint256",
							"name": "age",
							"type": "uint256"
						},
						{
							"internalType": "string",
							"name": "name",
							"type": "string"
						}
					],
					"stateMutability": "view",
					"type": "function"
				},
				{
					"inputs": [
						{
							"internalType": "string",
							"name": "",
							"type": "string"
						}
					],
					"name": "NAMEtoAGE",
					"outputs": [
						{
							"internalType": "uint256",
							"name": "",
							"type": "uint256"
						}
					],
					"stateMutability": "view",
					"type": "function"
				},
				{
					"inputs": [
						{
							"internalType": "string",
							"name": "_name",
							"type": "string"
						},
						{
							"internalType": "uint256",
							"name": "_age",
							"type": "uint256"
						}
					],
					"name": "addPerson",
					"outputs": [],
					"stateMutability": "nonpayable",
					"type": "function"
				},
				{
					"inputs": [],
					"name": "retrieve",
					"outputs": [
						{
							"internalType": "uint256",
							"name": "",
							"type": "uint256"
						}
					],
					"stateMutability": "view",
					"type": "function"
				},
				{
					"inputs": [
						{
							"internalType": "uint256",
							"name": "_newNumber",
							"type": "uint256"
						}
					],
					"name": "store",
					"outputs": [],
					"stateMutability": "nonpayable",
					"type": "function"
				}
			],
			"devdoc": {
				"kind": "dev",
				"methods": {},
				"version": 1
			},
			"evm": {
				"assembly": "    /* \"contracts/AddFiveStorage.sol\":133:285  contract  AddFiveStorage is SimpleStorage {... */\n  mstore(0x40, 0x80)\n  callvalue\n  dup1\n  iszero\n  tag_1\n  jumpi\n  revert(0x00, 0x00)\ntag_1:\n  pop\n  dataSize(sub_0)\n  dup1\n  dataOffset(sub_0)\n  0x00\n  codecopy\n  0x00\n  return\nstop\n\nsub_0: assembly {\n        /* \"contracts/AddFiveStorage.sol\":133:285  contract  AddFiveStorage is SimpleStorage {... */\n      mstore(0x40, 0x80)\n      callvalue\n      dup1\n      iszero\n      tag_1\n      jumpi\n      revert(0x00, 0x00)\n    tag_1:\n      pop\n      jumpi(tag_2, lt(calldatasize, 0x04))\n      shr(0xe0, calldataload(0x00))\n      dup1\n      0x2e64cec1\n      eq\n      tag_3\n      jumpi\n      dup1\n      0x6057361d\n      eq\n      tag_4\n      jumpi\n      dup1\n      0x6f760f41\n      eq\n      tag_5\n      jumpi\n      dup1\n      0xa6eb82e7\n      eq\n      tag_6\n      jumpi\n      dup1\n      0xce65561c\n      eq\n      tag_7\n      jumpi\n    tag_2:\n      revert(0x00, 0x00)\n        /* \"contracts/SimpleStorage.sol\":752:842  function retrieve() public view returns (uint256) {... */\n    tag_3:\n        /* \"contracts/SimpleStorage.sol\":820:834  favoriteNumber */\n      sload(0x02)\n        /* \"contracts/SimpleStorage.sol\":752:842  function retrieve() public view returns (uint256) {... */\n    tag_8:\n      mload(0x40)\n        /* \"#utility.yul\":160:185   */\n      swap1\n      dup2\n      mstore\n        /* \"#utility.yul\":148:150   */\n      0x20\n        /* \"#utility.yul\":133:151   */\n      add\n        /* \"contracts/SimpleStorage.sol\":752:842  function retrieve() public view returns (uint256) {... */\n    tag_10:\n      mload(0x40)\n      dup1\n      swap2\n      sub\n      swap1\n      return\n        /* \"contracts/AddFiveStorage.sol\":182:282  function store(uint256 _newNumber) public override{... */\n    tag_4:\n      tag_12\n      tag_13\n      calldatasize\n      0x04\n      tag_14\n      jump\t// in\n    tag_13:\n      tag_15\n      jump\t// in\n    tag_12:\n      stop\n        /* \"contracts/SimpleStorage.sol\":358:511  function addPerson(string memory _name, uint256 _age) public {... */\n    tag_5:\n      tag_12\n      tag_17\n      calldatasize\n      0x04\n      tag_18\n      jump\t// in\n    tag_17:\n      tag_19\n      jump\t// in\n        /* \"contracts/SimpleStorage.sol\":208:237  Person[] public ListOfPeoples */\n    tag_6:\n      tag_20\n      tag_21\n      calldatasize\n      0x04\n      tag_14\n      jump\t// in\n    tag_21:\n      tag_22\n      jump\t// in\n    tag_20:\n      mload(0x40)\n      tag_10\n      swap3\n      swap2\n      swap1\n      tag_24\n      jump\t// in\n        /* \"contracts/SimpleStorage.sol\":246:289  mapping(string => uint256) public NAMEtoAGE */\n    tag_7:\n      tag_8\n      tag_26\n      calldatasize\n      0x04\n      tag_27\n      jump\t// in\n    tag_26:\n      dup1\n      mload\n      0x20\n      dup2\n      dup4\n      add\n      dup2\n      add\n      dup1\n      mload\n      0x01\n      dup3\n      mstore\n      swap3\n      dup3\n      add\n      swap2\n      swap1\n      swap4\n      add\n      keccak256\n      swap2\n      mstore\n      sload\n      dup2\n      jump\n        /* \"contracts/AddFiveStorage.sol\":182:282  function store(uint256 _newNumber) public override{... */\n    tag_15:\n        /* \"contracts/AddFiveStorage.sol\":260:273  _newNumber +5 */\n      tag_32\n        /* \"contracts/AddFiveStorage.sol\":260:270  _newNumber */\n      dup2\n        /* \"contracts/AddFiveStorage.sol\":272:273  5 */\n      0x05\n        /* \"contracts/AddFiveStorage.sol\":260:273  _newNumber +5 */\n      tag_33\n      jump\t// in\n    tag_32:\n        /* \"contracts/AddFiveStorage.sol\":243:257  favoriteNumber */\n      0x02\n        /* \"contracts/AddFiveStorage.sol\":243:273  favoriteNumber = _newNumber +5 */\n      sstore\n      pop\n        /* \"contracts/AddFiveStorage.sol\":182:282  function store(uint256 _newNumber) public override{... */\n      jump\t// out\n        /* \"contracts/SimpleStorage.sol\":358:511  function addPerson(string memory _name, uint256 _age) public {... */\n    tag_19:\n        /* \"contracts/SimpleStorage.sol\":449:468  Person(_age, _name) */\n      0x40\n      dup1\n      mload\n      dup1\n      dup3\n      add\n      swap1\n      swap2\n      mstore\n      dup2\n      dup2\n      mstore\n      0x20\n      dup2\n      add\n      dup4\n      dup2\n      mstore\n        /* \"contracts/SimpleStorage.sol\":430:443  ListOfPeoples */\n      0x00\n        /* \"contracts/SimpleStorage.sol\":430:469  ListOfPeoples.push(Person(_age, _name)) */\n      dup1\n      sload\n      0x01\n      dup2\n      add\n      dup3\n      sstore\n      swap1\n      dup1\n      mstore\n      dup3\n      mload\n      0x02\n      swap1\n      swap2\n      mul\n      0x290decd9548b62a8d60345a988386fc84ba6bc95484008f6362f93160ef3e563\n      dup2\n      add\n      swap2\n      dup3\n      sstore\n      swap2\n      mload\n      swap1\n      swap2\n      0x290decd9548b62a8d60345a988386fc84ba6bc95484008f6362f93160ef3e564\n      add\n      swap1\n      tag_36\n      swap1\n      dup3\n      tag_37\n      jump\t// in\n    tag_36:\n      pop\n      pop\n      pop\n        /* \"contracts/SimpleStorage.sol\":499:503  _age */\n      dup1\n        /* \"contracts/SimpleStorage.sol\":480:489  NAMEtoAGE */\n      0x01\n        /* \"contracts/SimpleStorage.sol\":490:495  _name */\n      dup4\n        /* \"contracts/SimpleStorage.sol\":480:496  NAMEtoAGE[_name] */\n      mload(0x40)\n      tag_38\n      swap2\n      swap1\n      tag_39\n      jump\t// in\n    tag_38:\n      swap1\n      dup2\n      mstore\n      mload(0x40)\n      swap1\n      dup2\n      swap1\n      sub\n      0x20\n      add\n      swap1\n      keccak256\n        /* \"contracts/SimpleStorage.sol\":480:503  NAMEtoAGE[_name] = _age */\n      sstore\n      pop\n      pop\n        /* \"contracts/SimpleStorage.sol\":358:511  function addPerson(string memory _name, uint256 _age) public {... */\n      jump\t// out\n        /* \"contracts/SimpleStorage.sol\":208:237  Person[] public ListOfPeoples */\n    tag_22:\n      0x00\n      dup2\n      dup2\n      sload\n      dup2\n      lt\n      tag_40\n      jumpi\n      0x00\n      dup1\n      revert\n    tag_40:\n      0x00\n      swap2\n      dup3\n      mstore\n      0x20\n      swap1\n      swap2\n      keccak256\n      0x02\n      swap1\n      swap2\n      mul\n      add\n      dup1\n      sload\n      0x01\n      dup3\n      add\n      dup1\n      sload\n      swap2\n      swap4\n      pop\n      swap1\n      tag_42\n      swap1\n      tag_43\n      jump\t// in\n    tag_42:\n      dup1\n      0x1f\n      add\n      0x20\n      dup1\n      swap2\n      div\n      mul\n      0x20\n      add\n      mload(0x40)\n      swap1\n      dup2\n      add\n      0x40\n      mstore\n      dup1\n      swap3\n      swap2\n      swap1\n      dup2\n      dup2\n      mstore\n      0x20\n      add\n      dup3\n      dup1\n      sload\n      tag_44\n      swap1\n      tag_43\n      jump\t// in\n    tag_44:\n      dup1\n      iszero\n      tag_45\n      jumpi\n      dup1\n      0x1f\n      lt\n      tag_46\n      jumpi\n      0x0100\n      dup1\n      dup4\n      sload\n      div\n      mul\n      dup4\n      mstore\n      swap2\n      0x20\n      add\n      swap2\n      jump(tag_45)\n    tag_46:\n      dup3\n      add\n      swap2\n      swap1\n      0x00\n      mstore\n      keccak256(0x00, 0x20)\n      swap1\n    tag_47:\n      dup2\n      sload\n      dup2\n      mstore\n      swap1\n      0x01\n      add\n      swap1\n      0x20\n      add\n      dup1\n      dup4\n      gt\n      tag_47\n      jumpi\n      dup3\n      swap1\n      sub\n      0x1f\n      and\n      dup3\n      add\n      swap2\n    tag_45:\n      pop\n      pop\n      pop\n      pop\n      pop\n      swap1\n      pop\n      dup3\n      jump\t// out\n        /* \"#utility.yul\":196:422   */\n    tag_14:\n        /* \"#utility.yul\":255:261   */\n      0x00\n        /* \"#utility.yul\":308:310   */\n      0x20\n        /* \"#utility.yul\":296:305   */\n      dup3\n        /* \"#utility.yul\":287:294   */\n      dup5\n        /* \"#utility.yul\":283:306   */\n      sub\n        /* \"#utility.yul\":279:311   */\n      slt\n        /* \"#utility.yul\":276:328   */\n      iszero\n      tag_56\n      jumpi\n        /* \"#utility.yul\":324:325   */\n      0x00\n        /* \"#utility.yul\":321:322   */\n      0x00\n        /* \"#utility.yul\":314:326   */\n      revert\n        /* \"#utility.yul\":276:328   */\n    tag_56:\n      pop\n        /* \"#utility.yul\":369:392   */\n      calldataload\n      swap2\n        /* \"#utility.yul\":196:422   */\n      swap1\n      pop\n      jump\t// out\n        /* \"#utility.yul\":427:554   */\n    tag_48:\n        /* \"#utility.yul\":488:498   */\n      0x4e487b71\n        /* \"#utility.yul\":483:486   */\n      0xe0\n        /* \"#utility.yul\":479:499   */\n      shl\n        /* \"#utility.yul\":476:477   */\n      0x00\n        /* \"#utility.yul\":469:500   */\n      mstore\n        /* \"#utility.yul\":519:523   */\n      0x41\n        /* \"#utility.yul\":516:517   */\n      0x04\n        /* \"#utility.yul\":509:524   */\n      mstore\n        /* \"#utility.yul\":543:547   */\n      0x24\n        /* \"#utility.yul\":540:541   */\n      0x00\n        /* \"#utility.yul\":533:548   */\n      revert\n        /* \"#utility.yul\":559:1285   */\n    tag_49:\n        /* \"#utility.yul\":602:607   */\n      0x00\n        /* \"#utility.yul\":655:658   */\n      dup3\n        /* \"#utility.yul\":648:652   */\n      0x1f\n        /* \"#utility.yul\":640:646   */\n      dup4\n        /* \"#utility.yul\":636:653   */\n      add\n        /* \"#utility.yul\":632:659   */\n      slt\n        /* \"#utility.yul\":622:677   */\n      tag_59\n      jumpi\n        /* \"#utility.yul\":673:674   */\n      0x00\n        /* \"#utility.yul\":670:671   */\n      0x00\n        /* \"#utility.yul\":663:675   */\n      revert\n        /* \"#utility.yul\":622:677   */\n    tag_59:\n        /* \"#utility.yul\":713:719   */\n      dup2\n        /* \"#utility.yul\":700:720   */\n      calldataload\n        /* \"#utility.yul\":743:761   */\n      0xffffffffffffffff\n        /* \"#utility.yul\":735:741   */\n      dup2\n        /* \"#utility.yul\":732:762   */\n      gt\n        /* \"#utility.yul\":729:785   */\n      iszero\n      tag_61\n      jumpi\n        /* \"#utility.yul\":765:783   */\n      tag_61\n      tag_48\n      jump\t// in\n    tag_61:\n        /* \"#utility.yul\":814:816   */\n      0x40\n        /* \"#utility.yul\":808:817   */\n      mload\n        /* \"#utility.yul\":906:908   */\n      0x1f\n        /* \"#utility.yul\":868:885   */\n      dup3\n      add\n      not(0x1f)\n        /* \"#utility.yul\":864:895   */\n      swap1\n      dup2\n      and\n        /* \"#utility.yul\":897:899   */\n      0x3f\n        /* \"#utility.yul\":860:900   */\n      add\n        /* \"#utility.yul\":856:910   */\n      and\n        /* \"#utility.yul\":844:911   */\n      dup2\n      add\n        /* \"#utility.yul\":941:959   */\n      0xffffffffffffffff\n        /* \"#utility.yul\":926:960   */\n      dup2\n      gt\n        /* \"#utility.yul\":962:984   */\n      dup3\n      dup3\n      lt\n        /* \"#utility.yul\":923:985   */\n      or\n        /* \"#utility.yul\":920:1008   */\n      iszero\n      tag_63\n      jumpi\n        /* \"#utility.yul\":988:1006   */\n      tag_63\n      tag_48\n      jump\t// in\n    tag_63:\n        /* \"#utility.yul\":1024:1026   */\n      0x40\n        /* \"#utility.yul\":1017:1039   */\n      mstore\n        /* \"#utility.yul\":1048:1070   */\n      dup2\n      dup2\n      mstore\n        /* \"#utility.yul\":1089:1108   */\n      dup4\n      dup3\n      add\n        /* \"#utility.yul\":1110:1114   */\n      0x20\n        /* \"#utility.yul\":1085:1115   */\n      add\n        /* \"#utility.yul\":1082:1121   */\n      dup6\n      lt\n        /* \"#utility.yul\":1079:1138   */\n      iszero\n      tag_64\n      jumpi\n        /* \"#utility.yul\":1134:1135   */\n      0x00\n        /* \"#utility.yul\":1131:1132   */\n      0x00\n        /* \"#utility.yul\":1124:1136   */\n      revert\n        /* \"#utility.yul\":1079:1138   */\n    tag_64:\n        /* \"#utility.yul\":1198:1204   */\n      dup2\n        /* \"#utility.yul\":1191:1195   */\n      0x20\n        /* \"#utility.yul\":1183:1189   */\n      dup6\n        /* \"#utility.yul\":1179:1196   */\n      add\n        /* \"#utility.yul\":1172:1176   */\n      0x20\n        /* \"#utility.yul\":1164:1170   */\n      dup4\n        /* \"#utility.yul\":1160:1177   */\n      add\n        /* \"#utility.yul\":1147:1205   */\n      calldatacopy\n        /* \"#utility.yul\":1253:1254   */\n      0x00\n        /* \"#utility.yul\":1225:1244   */\n      swap2\n      dup2\n      add\n        /* \"#utility.yul\":1246:1250   */\n      0x20\n        /* \"#utility.yul\":1221:1251   */\n      add\n        /* \"#utility.yul\":1214:1255   */\n      swap2\n      swap1\n      swap2\n      mstore\n        /* \"#utility.yul\":1229:1235   */\n      swap4\n        /* \"#utility.yul\":559:1285   */\n      swap3\n      pop\n      pop\n      pop\n      jump\t// out\n        /* \"#utility.yul\":1290:1726   */\n    tag_18:\n        /* \"#utility.yul\":1368:1374   */\n      0x00\n        /* \"#utility.yul\":1376:1382   */\n      0x00\n        /* \"#utility.yul\":1429:1431   */\n      0x40\n        /* \"#utility.yul\":1417:1426   */\n      dup4\n        /* \"#utility.yul\":1408:1415   */\n      dup6\n        /* \"#utility.yul\":1404:1427   */\n      sub\n        /* \"#utility.yul\":1400:1432   */\n      slt\n        /* \"#utility.yul\":1397:1449   */\n      iszero\n      tag_66\n      jumpi\n        /* \"#utility.yul\":1445:1446   */\n      0x00\n        /* \"#utility.yul\":1442:1443   */\n      0x00\n        /* \"#utility.yul\":1435:1447   */\n      revert\n        /* \"#utility.yul\":1397:1449   */\n    tag_66:\n        /* \"#utility.yul\":1485:1494   */\n      dup3\n        /* \"#utility.yul\":1472:1495   */\n      calldataload\n        /* \"#utility.yul\":1518:1536   */\n      0xffffffffffffffff\n        /* \"#utility.yul\":1510:1516   */\n      dup2\n        /* \"#utility.yul\":1507:1537   */\n      gt\n        /* \"#utility.yul\":1504:1554   */\n      iszero\n      tag_67\n      jumpi\n        /* \"#utility.yul\":1550:1551   */\n      0x00\n        /* \"#utility.yul\":1547:1548   */\n      0x00\n        /* \"#utility.yul\":1540:1552   */\n      revert\n        /* \"#utility.yul\":1504:1554   */\n    tag_67:\n        /* \"#utility.yul\":1573:1623   */\n      tag_68\n        /* \"#utility.yul\":1615:1622   */\n      dup6\n        /* \"#utility.yul\":1606:1612   */\n      dup3\n        /* \"#utility.yul\":1595:1604   */\n      dup7\n        /* \"#utility.yul\":1591:1613   */\n      add\n        /* \"#utility.yul\":1573:1623   */\n      tag_49\n      jump\t// in\n    tag_68:\n        /* \"#utility.yul\":1563:1623   */\n      swap6\n        /* \"#utility.yul\":1692:1694   */\n      0x20\n        /* \"#utility.yul\":1677:1695   */\n      swap5\n      swap1\n      swap5\n      add\n        /* \"#utility.yul\":1664:1696   */\n      calldataload\n      swap5\n      pop\n      pop\n      pop\n      pop\n        /* \"#utility.yul\":1290:1726   */\n      jump\t// out\n        /* \"#utility.yul\":1731:2220   */\n    tag_24:\n        /* \"#utility.yul\":1908:1914   */\n      dup3\n        /* \"#utility.yul\":1897:1906   */\n      dup2\n        /* \"#utility.yul\":1890:1915   */\n      mstore\n        /* \"#utility.yul\":1951:1953   */\n      0x40\n        /* \"#utility.yul\":1946:1948   */\n      0x20\n        /* \"#utility.yul\":1935:1944   */\n      dup3\n        /* \"#utility.yul\":1931:1949   */\n      add\n        /* \"#utility.yul\":1924:1954   */\n      mstore\n        /* \"#utility.yul\":1871:1875   */\n      0x00\n        /* \"#utility.yul\":1983:1989   */\n      dup3\n        /* \"#utility.yul\":1977:1990   */\n      mload\n        /* \"#utility.yul\":2026:2032   */\n      dup1\n        /* \"#utility.yul\":2021:2023   */\n      0x40\n        /* \"#utility.yul\":2010:2019   */\n      dup5\n        /* \"#utility.yul\":2006:2024   */\n      add\n        /* \"#utility.yul\":1999:2033   */\n      mstore\n        /* \"#utility.yul\":2085:2091   */\n      dup1\n        /* \"#utility.yul\":2080:2082   */\n      0x20\n        /* \"#utility.yul\":2072:2078   */\n      dup6\n        /* \"#utility.yul\":2068:2083   */\n      add\n        /* \"#utility.yul\":2063:2065   */\n      0x60\n        /* \"#utility.yul\":2052:2061   */\n      dup6\n        /* \"#utility.yul\":2048:2066   */\n      add\n        /* \"#utility.yul\":2042:2092   */\n      mcopy\n        /* \"#utility.yul\":2141:2142   */\n      0x00\n        /* \"#utility.yul\":2136:2138   */\n      0x60\n        /* \"#utility.yul\":2127:2133   */\n      dup3\n        /* \"#utility.yul\":2116:2125   */\n      dup6\n        /* \"#utility.yul\":2112:2134   */\n      add\n        /* \"#utility.yul\":2108:2139   */\n      add\n        /* \"#utility.yul\":2101:2143   */\n      mstore\n        /* \"#utility.yul\":2211:2213   */\n      0x60\n        /* \"#utility.yul\":2204:2206   */\n      0x1f\n        /* \"#utility.yul\":2200:2207   */\n      not\n        /* \"#utility.yul\":2195:2197   */\n      0x1f\n        /* \"#utility.yul\":2187:2193   */\n      dup4\n        /* \"#utility.yul\":2183:2198   */\n      add\n        /* \"#utility.yul\":2179:2208   */\n      and\n        /* \"#utility.yul\":2168:2177   */\n      dup5\n        /* \"#utility.yul\":2164:2209   */\n      add\n        /* \"#utility.yul\":2160:2214   */\n      add\n        /* \"#utility.yul\":2152:2214   */\n      swap2\n      pop\n      pop\n        /* \"#utility.yul\":1731:2220   */\n      swap4\n      swap3\n      pop\n      pop\n      pop\n      jump\t// out\n        /* \"#utility.yul\":2225:2547   */\n    tag_27:\n        /* \"#utility.yul\":2294:2300   */\n      0x00\n        /* \"#utility.yul\":2347:2349   */\n      0x20\n        /* \"#utility.yul\":2335:2344   */\n      dup3\n        /* \"#utility.yul\":2326:2333   */\n      dup5\n        /* \"#utility.yul\":2322:2345   */\n      sub\n        /* \"#utility.yul\":2318:2350   */\n      slt\n        /* \"#utility.yul\":2315:2367   */\n      iszero\n      tag_71\n      jumpi\n        /* \"#utility.yul\":2363:2364   */\n      0x00\n        /* \"#utility.yul\":2360:2361   */\n      0x00\n        /* \"#utility.yul\":2353:2365   */\n      revert\n        /* \"#utility.yul\":2315:2367   */\n    tag_71:\n        /* \"#utility.yul\":2403:2412   */\n      dup2\n        /* \"#utility.yul\":2390:2413   */\n      calldataload\n        /* \"#utility.yul\":2436:2454   */\n      0xffffffffffffffff\n        /* \"#utility.yul\":2428:2434   */\n      dup2\n        /* \"#utility.yul\":2425:2455   */\n      gt\n        /* \"#utility.yul\":2422:2472   */\n      iszero\n      tag_72\n      jumpi\n        /* \"#utility.yul\":2468:2469   */\n      0x00\n        /* \"#utility.yul\":2465:2466   */\n      0x00\n        /* \"#utility.yul\":2458:2470   */\n      revert\n        /* \"#utility.yul\":2422:2472   */\n    tag_72:\n        /* \"#utility.yul\":2491:2541   */\n      tag_73\n        /* \"#utility.yul\":2533:2540   */\n      dup5\n        /* \"#utility.yul\":2524:2530   */\n      dup3\n        /* \"#utility.yul\":2513:2522   */\n      dup6\n        /* \"#utility.yul\":2509:2531   */\n      add\n        /* \"#utility.yul\":2491:2541   */\n      tag_49\n      jump\t// in\n    tag_73:\n        /* \"#utility.yul\":2481:2541   */\n      swap5\n        /* \"#utility.yul\":2225:2547   */\n      swap4\n      pop\n      pop\n      pop\n      pop\n      jump\t// out\n        /* \"#utility.yul\":2552:2774   */\n    tag_33:\n        /* \"#utility.yul\":2617:2626   */\n      dup1\n      dup3\n      add\n        /* \"#utility.yul\":2638:2648   */\n      dup1\n      dup3\n      gt\n        /* \"#utility.yul\":2635:2768   */\n      iszero\n      tag_75\n      jumpi\n        /* \"#utility.yul\":2690:2700   */\n      0x4e487b71\n        /* \"#utility.yul\":2685:2688   */\n      0xe0\n        /* \"#utility.yul\":2681:2701   */\n      shl\n        /* \"#utility.yul\":2678:2679   */\n      0x00\n        /* \"#utility.yul\":2671:2702   */\n      mstore\n        /* \"#utility.yul\":2725:2729   */\n      0x11\n        /* \"#utility.yul\":2722:2723   */\n      0x04\n        /* \"#utility.yul\":2715:2730   */\n      mstore\n        /* \"#utility.yul\":2753:2757   */\n      0x24\n        /* \"#utility.yul\":2750:2751   */\n      0x00\n        /* \"#utility.yul\":2743:2758   */\n      revert\n        /* \"#utility.yul\":2635:2768   */\n    tag_75:\n        /* \"#utility.yul\":2552:2774   */\n      swap3\n      swap2\n      pop\n      pop\n      jump\t// out\n        /* \"#utility.yul\":2779:3159   */\n    tag_43:\n        /* \"#utility.yul\":2858:2859   */\n      0x01\n        /* \"#utility.yul\":2854:2866   */\n      dup2\n      dup2\n      shr\n      swap1\n        /* \"#utility.yul\":2901:2913   */\n      dup3\n      and\n      dup1\n        /* \"#utility.yul\":2922:2983   */\n      tag_77\n      jumpi\n        /* \"#utility.yul\":2976:2980   */\n      0x7f\n        /* \"#utility.yul\":2968:2974   */\n      dup3\n        /* \"#utility.yul\":2964:2981   */\n      and\n        /* \"#utility.yul\":2954:2981   */\n      swap2\n      pop\n        /* \"#utility.yul\":2922:2983   */\n    tag_77:\n        /* \"#utility.yul\":3029:3031   */\n      0x20\n        /* \"#utility.yul\":3021:3027   */\n      dup3\n        /* \"#utility.yul\":3018:3032   */\n      lt\n        /* \"#utility.yul\":2998:3016   */\n      dup2\n        /* \"#utility.yul\":2995:3033   */\n      sub\n        /* \"#utility.yul\":2992:3153   */\n      tag_78\n      jumpi\n        /* \"#utility.yul\":3075:3085   */\n      0x4e487b71\n        /* \"#utility.yul\":3070:3073   */\n      0xe0\n        /* \"#utility.yul\":3066:3086   */\n      shl\n        /* \"#utility.yul\":3063:3064   */\n      0x00\n        /* \"#utility.yul\":3056:3087   */\n      mstore\n        /* \"#utility.yul\":3110:3114   */\n      0x22\n        /* \"#utility.yul\":3107:3108   */\n      0x04\n        /* \"#utility.yul\":3100:3115   */\n      mstore\n        /* \"#utility.yul\":3138:3142   */\n      0x24\n        /* \"#utility.yul\":3135:3136   */\n      0x00\n        /* \"#utility.yul\":3128:3143   */\n      revert\n        /* \"#utility.yul\":2992:3153   */\n    tag_78:\n      pop\n        /* \"#utility.yul\":2779:3159   */\n      swap2\n      swap1\n      pop\n      jump\t// out\n        /* \"#utility.yul\":3290:3808   */\n    tag_51:\n        /* \"#utility.yul\":3392:3394   */\n      0x1f\n        /* \"#utility.yul\":3387:3390   */\n      dup3\n        /* \"#utility.yul\":3384:3395   */\n      gt\n        /* \"#utility.yul\":3381:3802   */\n      iszero\n      tag_81\n      jumpi\n        /* \"#utility.yul\":3428:3433   */\n      dup1\n        /* \"#utility.yul\":3425:3426   */\n      0x00\n        /* \"#utility.yul\":3418:3434   */\n      mstore\n        /* \"#utility.yul\":3472:3476   */\n      0x20\n        /* \"#utility.yul\":3469:3470   */\n      0x00\n        /* \"#utility.yul\":3459:3477   */\n      keccak256\n        /* \"#utility.yul\":3542:3544   */\n      0x1f\n        /* \"#utility.yul\":3530:3540   */\n      dup5\n        /* \"#utility.yul\":3526:3545   */\n      add\n        /* \"#utility.yul\":3523:3524   */\n      0x05\n        /* \"#utility.yul\":3519:3546   */\n      shr\n        /* \"#utility.yul\":3513:3517   */\n      dup2\n        /* \"#utility.yul\":3509:3547   */\n      add\n        /* \"#utility.yul\":3578:3582   */\n      0x20\n        /* \"#utility.yul\":3566:3576   */\n      dup6\n        /* \"#utility.yul\":3563:3583   */\n      lt\n        /* \"#utility.yul\":3560:3607   */\n      iszero\n      tag_82\n      jumpi\n      pop\n        /* \"#utility.yul\":3601:3605   */\n      dup1\n        /* \"#utility.yul\":3560:3607   */\n    tag_82:\n        /* \"#utility.yul\":3656:3658   */\n      0x1f\n        /* \"#utility.yul\":3651:3654   */\n      dup5\n        /* \"#utility.yul\":3647:3659   */\n      add\n        /* \"#utility.yul\":3644:3645   */\n      0x05\n        /* \"#utility.yul\":3640:3660   */\n      shr\n        /* \"#utility.yul\":3634:3638   */\n      dup3\n        /* \"#utility.yul\":3630:3661   */\n      add\n        /* \"#utility.yul\":3620:3661   */\n      swap2\n      pop\n        /* \"#utility.yul\":3711:3792   */\n    tag_83:\n        /* \"#utility.yul\":3729:3731   */\n      dup2\n        /* \"#utility.yul\":3722:3727   */\n      dup2\n        /* \"#utility.yul\":3719:3732   */\n      lt\n        /* \"#utility.yul\":3711:3792   */\n      iszero\n      tag_85\n      jumpi\n        /* \"#utility.yul\":3788:3789   */\n      0x00\n        /* \"#utility.yul\":3774:3790   */\n      dup2\n      sstore\n        /* \"#utility.yul\":3755:3756   */\n      0x01\n        /* \"#utility.yul\":3744:3757   */\n      add\n        /* \"#utility.yul\":3711:3792   */\n      jump(tag_83)\n    tag_85:\n        /* \"#utility.yul\":3715:3718   */\n      pop\n      pop\n        /* \"#utility.yul\":3381:3802   */\n    tag_81:\n        /* \"#utility.yul\":3290:3808   */\n      pop\n      pop\n      pop\n      jump\t// out\n        /* \"#utility.yul\":3984:5283   */\n    tag_37:\n        /* \"#utility.yul\":4110:4113   */\n      dup2\n        /* \"#utility.yul\":4104:4114   */\n      mload\n        /* \"#utility.yul\":4137:4155   */\n      0xffffffffffffffff\n        /* \"#utility.yul\":4129:4135   */\n      dup2\n        /* \"#utility.yul\":4126:4156   */\n      gt\n        /* \"#utility.yul\":4123:4179   */\n      iszero\n      tag_89\n      jumpi\n        /* \"#utility.yul\":4159:4177   */\n      tag_89\n      tag_48\n      jump\t// in\n    tag_89:\n        /* \"#utility.yul\":4188:4285   */\n      tag_90\n        /* \"#utility.yul\":4278:4284   */\n      dup2\n        /* \"#utility.yul\":4238:4276   */\n      tag_91\n        /* \"#utility.yul\":4270:4274   */\n      dup5\n        /* \"#utility.yul\":4264:4275   */\n      sload\n        /* \"#utility.yul\":4238:4276   */\n      tag_43\n      jump\t// in\n    tag_91:\n        /* \"#utility.yul\":4232:4236   */\n      dup5\n        /* \"#utility.yul\":4188:4285   */\n      tag_51\n      jump\t// in\n    tag_90:\n        /* \"#utility.yul\":4334:4338   */\n      0x20\n        /* \"#utility.yul\":4365:4367   */\n      0x1f\n        /* \"#utility.yul\":4354:4368   */\n      dup3\n      gt\n        /* \"#utility.yul\":4382:4383   */\n      0x01\n        /* \"#utility.yul\":4377:5026   */\n      dup2\n      eq\n      tag_93\n      jumpi\n        /* \"#utility.yul\":5070:5071   */\n      0x00\n        /* \"#utility.yul\":5087:5093   */\n      dup4\n        /* \"#utility.yul\":5084:5173   */\n      iszero\n      tag_94\n      jumpi\n      pop\n        /* \"#utility.yul\":5139:5158   */\n      dup5\n      dup3\n      add\n        /* \"#utility.yul\":5133:5159   */\n      mload\n        /* \"#utility.yul\":5084:5173   */\n    tag_94:\n      not(0x00)\n        /* \"#utility.yul\":3941:3942   */\n      0x03\n        /* \"#utility.yul\":3937:3948   */\n      dup6\n      swap1\n      shl\n        /* \"#utility.yul\":3933:3957   */\n      shr\n        /* \"#utility.yul\":3929:3958   */\n      not\n        /* \"#utility.yul\":3919:3959   */\n      and\n        /* \"#utility.yul\":3965:3966   */\n      0x01\n        /* \"#utility.yul\":3961:3972   */\n      dup5\n      swap1\n      shl\n        /* \"#utility.yul\":3916:3973   */\n      or\n        /* \"#utility.yul\":5186:5267   */\n      dup5\n      sstore\n        /* \"#utility.yul\":4347:5277   */\n      jump(tag_85)\n        /* \"#utility.yul\":4377:5026   */\n    tag_93:\n        /* \"#utility.yul\":3237:3238   */\n      0x00\n        /* \"#utility.yul\":3230:3244   */\n      dup5\n      dup2\n      mstore\n        /* \"#utility.yul\":3274:3278   */\n      0x20\n        /* \"#utility.yul\":3261:3279   */\n      dup2\n      keccak256\n      not(0x1f)\n        /* \"#utility.yul\":4413:4433   */\n      dup6\n      and\n      swap2\n        /* \"#utility.yul\":4531:4753   */\n    tag_97:\n        /* \"#utility.yul\":4545:4552   */\n      dup3\n        /* \"#utility.yul\":4542:4543   */\n      dup2\n        /* \"#utility.yul\":4539:4553   */\n      lt\n        /* \"#utility.yul\":4531:4753   */\n      iszero\n      tag_99\n      jumpi\n        /* \"#utility.yul\":4627:4646   */\n      dup8\n      dup6\n      add\n        /* \"#utility.yul\":4621:4647   */\n      mload\n        /* \"#utility.yul\":4606:4648   */\n      dup3\n      sstore\n        /* \"#utility.yul\":4734:4738   */\n      0x20\n        /* \"#utility.yul\":4719:4739   */\n      swap5\n      dup6\n      add\n      swap5\n        /* \"#utility.yul\":4687:4688   */\n      0x01\n        /* \"#utility.yul\":4675:4689   */\n      swap1\n      swap3\n      add\n      swap2\n        /* \"#utility.yul\":4561:4573   */\n      add\n        /* \"#utility.yul\":4531:4753   */\n      jump(tag_97)\n    tag_99:\n        /* \"#utility.yul\":4535:4538   */\n      pop\n        /* \"#utility.yul\":4781:4787   */\n      dup5\n        /* \"#utility.yul\":4772:4779   */\n      dup3\n        /* \"#utility.yul\":4769:4788   */\n      lt\n        /* \"#utility.yul\":4766:4967   */\n      iszero\n      tag_100\n      jumpi\n        /* \"#utility.yul\":4842:4861   */\n      dup7\n      dup5\n      add\n        /* \"#utility.yul\":4836:4862   */\n      mload\n      not(0x00)\n        /* \"#utility.yul\":4925:4926   */\n      0x03\n        /* \"#utility.yul\":4921:4935   */\n      dup8\n      swap1\n      shl\n        /* \"#utility.yul\":4937:4940   */\n      0xf8\n        /* \"#utility.yul\":4917:4941   */\n      and\n        /* \"#utility.yul\":4913:4950   */\n      shr\n        /* \"#utility.yul\":4909:4951   */\n      not\n        /* \"#utility.yul\":4894:4952   */\n      and\n        /* \"#utility.yul\":4879:4953   */\n      dup2\n      sstore\n        /* \"#utility.yul\":4766:4967   */\n    tag_100:\n      pop\n      pop\n      pop\n      pop\n        /* \"#utility.yul\":5013:5014   */\n      0x01\n        /* \"#utility.yul\":4997:5011   */\n      swap1\n      dup2\n      shl\n        /* \"#utility.yul\":4993:5015   */\n      add\n        /* \"#utility.yul\":4980:5016   */\n      swap1\n      sstore\n      pop\n        /* \"#utility.yul\":3984:5283   */\n      jump\t// out\n        /* \"#utility.yul\":5288:5591   */\n    tag_39:\n        /* \"#utility.yul\":5419:5422   */\n      0x00\n        /* \"#utility.yul\":5457:5463   */\n      dup3\n        /* \"#utility.yul\":5451:5464   */\n      mload\n        /* \"#utility.yul\":5503:5509   */\n      dup1\n        /* \"#utility.yul\":5496:5500   */\n      0x20\n        /* \"#utility.yul\":5488:5494   */\n      dup6\n        /* \"#utility.yul\":5484:5501   */\n      add\n        /* \"#utility.yul\":5479:5482   */\n      dup5\n        /* \"#utility.yul\":5473:5510   */\n      mcopy\n        /* \"#utility.yul\":5565:5566   */\n      0x00\n        /* \"#utility.yul\":5529:5545   */\n      swap3\n      add\n        /* \"#utility.yul\":5554:5567   */\n      swap2\n      dup3\n      mstore\n      pop\n        /* \"#utility.yul\":5529:5545   */\n      swap2\n        /* \"#utility.yul\":5288:5591   */\n      swap1\n      pop\n      jump\t// out\n\n    auxdata: 0xa26469706673582212209bcd365e3744b01b3187c7859444b3fc0d276da030f90c9def65b9543463eb5664736f6c634300081e0033\n}\n",
				"bytecode": {
					"linkReferences": {},
					"object": "6080604052348015600e575f5ffd5b5061056c8061001c5f395ff3fe608060405234801561000f575f5ffd5b5060043610610055575f3560e01c80632e64cec1146100595780636057361d146100705780636f760f4114610085578063a6eb82e714610098578063ce65561c146100b9575b5f5ffd5b6002545b6040519081526020015b60405180910390f35b61008361007e36600461024e565b6100e4565b005b610083610093366004610304565b6100f5565b6100ab6100a636600461024e565b61019b565b604051610067929190610346565b61005d6100c7366004610382565b805160208183018101805160018252928201919093012091525481565b6100ef8160056103bc565b60025550565b60408051808201909152818152602081018381525f8054600181018255908052825160029091027f290decd9548b62a8d60345a988386fc84ba6bc95484008f6362f93160ef3e5638101918255915190917f290decd9548b62a8d60345a988386fc84ba6bc95484008f6362f93160ef3e56401906101739082610465565b505050806001836040516101879190610520565b908152604051908190036020019020555050565b5f81815481106101a9575f80fd5b5f91825260209091206002909102018054600182018054919350906101cd906103e1565b80601f01602080910402602001604051908101604052809291908181526020018280546101f9906103e1565b80156102445780601f1061021b57610100808354040283529160200191610244565b820191905f5260205f20905b81548152906001019060200180831161022757829003601f168201915b5050505050905082565b5f6020828403121561025e575f5ffd5b5035919050565b634e487b7160e01b5f52604160045260245ffd5b5f82601f830112610288575f5ffd5b813567ffffffffffffffff8111156102a2576102a2610265565b604051601f8201601f19908116603f0116810167ffffffffffffffff811182821017156102d1576102d1610265565b6040528181528382016020018510156102e8575f5ffd5b816020850160208301375f918101602001919091529392505050565b5f5f60408385031215610315575f5ffd5b823567ffffffffffffffff81111561032b575f5ffd5b61033785828601610279565b95602094909401359450505050565b828152604060208201525f82518060408401528060208501606085015e5f606082850101526060601f19601f8301168401019150509392505050565b5f60208284031215610392575f5ffd5b813567ffffffffffffffff8111156103a8575f5ffd5b6103b484828501610279565b949350505050565b808201808211156103db57634e487b7160e01b5f52601160045260245ffd5b92915050565b600181811c908216806103f557607f821691505b60208210810361041357634e487b7160e01b5f52602260045260245ffd5b50919050565b601f82111561046057805f5260205f20601f840160051c8101602085101561043e5750805b601f840160051c820191505b8181101561045d575f815560010161044a565b50505b505050565b815167ffffffffffffffff81111561047f5761047f610265565b6104938161048d84546103e1565b84610419565b6020601f8211600181146104c5575f83156104ae5750848201515b5f19600385901b1c1916600184901b17845561045d565b5f84815260208120601f198516915b828110156104f457878501518255602094850194600190920191016104d4565b508482101561051157868401515f19600387901b60f8161c191681555b50505050600190811b01905550565b5f82518060208501845e5f92019182525091905056fea26469706673582212209bcd365e3744b01b3187c7859444b3fc0d276da030f90c9def65b9543463eb5664736f6c634300081e0033",
					"opcodes": "PUSH1 0x80 PUSH1 0x40 MSTORE CALLVALUE DUP1 ISZERO PUSH1 0xE JUMPI PUSH0 PUSH0 REVERT JUMPDEST POP PUSH2 0x56C DUP1 PUSH2 0x1C PUSH0 CODECOPY PUSH0 RETURN INVALID PUSH1 0x80 PUSH1 0x40 MSTORE CALLVALUE DUP1 ISZERO PUSH2 0xF JUMPI PUSH0 PUSH0 REVERT JUMPDEST POP PUSH1 0x4 CALLDATASIZE LT PUSH2 0x55 JUMPI PUSH0 CALLDATALOAD PUSH1 0xE0 SHR DUP1 PUSH4 0x2E64CEC1 EQ PUSH2 0x59 JUMPI DUP1 PUSH4 0x6057361D EQ PUSH2 0x70 JUMPI DUP1 PUSH4 0x6F760F41 EQ PUSH2 0x85 JUMPI DUP1 PUSH4 0xA6EB82E7 EQ PUSH2 0x98 JUMPI DUP1 PUSH4 0xCE65561C EQ PUSH2 0xB9 JUMPI JUMPDEST PUSH0 PUSH0 REVERT JUMPDEST PUSH1 0x2 SLOAD JUMPDEST PUSH1 0x40 MLOAD SWAP1 DUP2 MSTORE PUSH1 0x20 ADD JUMPDEST PUSH1 0x40 MLOAD DUP1 SWAP2 SUB SWAP1 RETURN JUMPDEST PUSH2 0x83 PUSH2 0x7E CALLDATASIZE PUSH1 0x4 PUSH2 0x24E JUMP JUMPDEST PUSH2 0xE4 JUMP JUMPDEST STOP JUMPDEST PUSH2 0x83 PUSH2 0x93 CALLDATASIZE PUSH1 0x4 PUSH2 0x304 JUMP JUMPDEST PUSH2 0xF5 JUMP JUMPDEST PUSH2 0xAB PUSH2 0xA6 CALLDATASIZE PUSH1 0x4 PUSH2 0x24E JUMP JUMPDEST PUSH2 0x19B JUMP JUMPDEST PUSH1 0x40 MLOAD PUSH2 0x67 SWAP3 SWAP2 SWAP1 PUSH2 0x346 JUMP JUMPDEST PUSH2 0x5D PUSH2 0xC7 CALLDATASIZE PUSH1 0x4 PUSH2 0x382 JUMP JUMPDEST DUP1 MLOAD PUSH1 0x20 DUP2 DUP4 ADD DUP2 ADD DUP1 MLOAD PUSH1 0x1 DUP3 MSTORE SWAP3 DUP3 ADD SWAP2 SWAP1 SWAP4 ADD KECCAK256 SWAP2 MSTORE SLOAD DUP2 JUMP JUMPDEST PUSH2 0xEF DUP2 PUSH1 0x5 PUSH2 0x3BC JUMP JUMPDEST PUSH1 0x2 SSTORE POP JUMP JUMPDEST PUSH1 0x40 DUP1 MLOAD DUP1 DUP3 ADD SWAP1 SWAP2 MSTORE DUP2 DUP2 MSTORE PUSH1 0x20 DUP2 ADD DUP4 DUP2 MSTORE PUSH0 DUP1 SLOAD PUSH1 0x1 DUP2 ADD DUP3 SSTORE SWAP1 DUP1 MSTORE DUP3 MLOAD PUSH1 0x2 SWAP1 SWAP2 MUL PUSH32 0x290DECD9548B62A8D60345A988386FC84BA6BC95484008F6362F93160EF3E563 DUP2 ADD SWAP2 DUP3 SSTORE SWAP2 MLOAD SWAP1 SWAP2 PUSH32 0x290DECD9548B62A8D60345A988386FC84BA6BC95484008F6362F93160EF3E564 ADD SWAP1 PUSH2 0x173 SWAP1 DUP3 PUSH2 0x465 JUMP JUMPDEST POP POP POP DUP1 PUSH1 0x1 DUP4 PUSH1 0x40 MLOAD PUSH2 0x187 SWAP2 SWAP1 PUSH2 0x520 JUMP JUMPDEST SWAP1 DUP2 MSTORE PUSH1 0x40 MLOAD SWAP1 DUP2 SWAP1 SUB PUSH1 0x20 ADD SWAP1 KECCAK256 SSTORE POP POP JUMP JUMPDEST PUSH0 DUP2 DUP2 SLOAD DUP2 LT PUSH2 0x1A9 JUMPI PUSH0 DUP1 REVERT JUMPDEST PUSH0 SWAP2 DUP3 MSTORE PUSH1 0x20 SWAP1 SWAP2 KECCAK256 PUSH1 0x2 SWAP1 SWAP2 MUL ADD DUP1 SLOAD PUSH1 0x1 DUP3 ADD DUP1 SLOAD SWAP2 SWAP4 POP SWAP1 PUSH2 0x1CD SWAP1 PUSH2 0x3E1 JUMP JUMPDEST DUP1 PUSH1 0x1F ADD PUSH1 0x20 DUP1 SWAP2 DIV MUL PUSH1 0x20 ADD PUSH1 0x40 MLOAD SWAP1 DUP2 ADD PUSH1 0x40 MSTORE DUP1 SWAP3 SWAP2 SWAP1 DUP2 DUP2 MSTORE PUSH1 0x20 ADD DUP3 DUP1 SLOAD PUSH2 0x1F9 SWAP1 PUSH2 0x3E1 JUMP JUMPDEST DUP1 ISZERO PUSH2 0x244 JUMPI DUP1 PUSH1 0x1F LT PUSH2 0x21B JUMPI PUSH2 0x100 DUP1 DUP4 SLOAD DIV MUL DUP4 MSTORE SWAP2 PUSH1 0x20 ADD SWAP2 PUSH2 0x244 JUMP JUMPDEST DUP3 ADD SWAP2 SWAP1 PUSH0 MSTORE PUSH1 0x20 PUSH0 KECCAK256 SWAP1 JUMPDEST DUP2 SLOAD DUP2 MSTORE SWAP1 PUSH1 0x1 ADD SWAP1 PUSH1 0x20 ADD DUP1 DUP4 GT PUSH2 0x227 JUMPI DUP3 SWAP1 SUB PUSH1 0x1F AND DUP3 ADD SWAP2 JUMPDEST POP POP POP POP POP SWAP1 POP DUP3 JUMP JUMPDEST PUSH0 PUSH1 0x20 DUP3 DUP5 SUB SLT ISZERO PUSH2 0x25E JUMPI PUSH0 PUSH0 REVERT JUMPDEST POP CALLDATALOAD SWAP2 SWAP1 POP JUMP JUMPDEST PUSH4 0x4E487B71 PUSH1 0xE0 SHL PUSH0 MSTORE PUSH1 0x41 PUSH1 0x4 MSTORE PUSH1 0x24 PUSH0 REVERT JUMPDEST PUSH0 DUP3 PUSH1 0x1F DUP4 ADD SLT PUSH2 0x288 JUMPI PUSH0 PUSH0 REVERT JUMPDEST DUP2 CALLDATALOAD PUSH8 0xFFFFFFFFFFFFFFFF DUP2 GT ISZERO PUSH2 0x2A2 JUMPI PUSH2 0x2A2 PUSH2 0x265 JUMP JUMPDEST PUSH1 0x40 MLOAD PUSH1 0x1F DUP3 ADD PUSH1 0x1F NOT SWAP1 DUP2 AND PUSH1 0x3F ADD AND DUP2 ADD PUSH8 0xFFFFFFFFFFFFFFFF DUP2 GT DUP3 DUP3 LT OR ISZERO PUSH2 0x2D1 JUMPI PUSH2 0x2D1 PUSH2 0x265 JUMP JUMPDEST PUSH1 0x40 MSTORE DUP2 DUP2 MSTORE DUP4 DUP3 ADD PUSH1 0x20 ADD DUP6 LT ISZERO PUSH2 0x2E8 JUMPI PUSH0 PUSH0 REVERT JUMPDEST DUP2 PUSH1 0x20 DUP6 ADD PUSH1 0x20 DUP4 ADD CALLDATACOPY PUSH0 SWAP2 DUP2 ADD PUSH1 0x20 ADD SWAP2 SWAP1 SWAP2 MSTORE SWAP4 SWAP3 POP POP POP JUMP JUMPDEST PUSH0 PUSH0 PUSH1 0x40 DUP4 DUP6 SUB SLT ISZERO PUSH2 0x315 JUMPI PUSH0 PUSH0 REVERT JUMPDEST DUP3 CALLDATALOAD PUSH8 0xFFFFFFFFFFFFFFFF DUP2 GT ISZERO PUSH2 0x32B JUMPI PUSH0 PUSH0 REVERT JUMPDEST PUSH2 0x337 DUP6 DUP3 DUP7 ADD PUSH2 0x279 JUMP JUMPDEST SWAP6 PUSH1 0x20 SWAP5 SWAP1 SWAP5 ADD CALLDATALOAD SWAP5 POP POP POP POP JUMP JUMPDEST DUP3 DUP2 MSTORE PUSH1 0x40 PUSH1 0x20 DUP3 ADD MSTORE PUSH0 DUP3 MLOAD DUP1 PUSH1 0x40 DUP5 ADD MSTORE DUP1 PUSH1 0x20 DUP6 ADD PUSH1 0x60 DUP6 ADD MCOPY PUSH0 PUSH1 0x60 DUP3 DUP6 ADD ADD MSTORE PUSH1 0x60 PUSH1 0x1F NOT PUSH1 0x1F DUP4 ADD AND DUP5 ADD ADD SWAP2 POP POP SWAP4 SWAP3 POP POP POP JUMP JUMPDEST PUSH0 PUSH1 0x20 DUP3 DUP5 SUB SLT ISZERO PUSH2 0x392 JUMPI PUSH0 PUSH0 REVERT JUMPDEST DUP2 CALLDATALOAD PUSH8 0xFFFFFFFFFFFFFFFF DUP2 GT ISZERO PUSH2 0x3A8 JUMPI PUSH0 PUSH0 REVERT JUMPDEST PUSH2 0x3B4 DUP5 DUP3 DUP6 ADD PUSH2 0x279 JUMP JUMPDEST SWAP5 SWAP4 POP POP POP POP JUMP JUMPDEST DUP1 DUP3 ADD DUP1 DUP3 GT ISZERO PUSH2 0x3DB JUMPI PUSH4 0x4E487B71 PUSH1 0xE0 SHL PUSH0 MSTORE PUSH1 0x11 PUSH1 0x4 MSTORE PUSH1 0x24 PUSH0 REVERT JUMPDEST SWAP3 SWAP2 POP POP JUMP JUMPDEST PUSH1 0x1 DUP2 DUP2 SHR SWAP1 DUP3 AND DUP1 PUSH2 0x3F5 JUMPI PUSH1 0x7F DUP3 AND SWAP2 POP JUMPDEST PUSH1 0x20 DUP3 LT DUP2 SUB PUSH2 0x413 JUMPI PUSH4 0x4E487B71 PUSH1 0xE0 SHL PUSH0 MSTORE PUSH1 0x22 PUSH1 0x4 MSTORE PUSH1 0x24 PUSH0 REVERT JUMPDEST POP SWAP2 SWAP1 POP JUMP JUMPDEST PUSH1 0x1F DUP3 GT ISZERO PUSH2 0x460 JUMPI DUP1 PUSH0 MSTORE PUSH1 0x20 PUSH0 KECCAK256 PUSH1 0x1F DUP5 ADD PUSH1 0x5 SHR DUP2 ADD PUSH1 0x20 DUP6 LT ISZERO PUSH2 0x43E JUMPI POP DUP1 JUMPDEST PUSH1 0x1F DUP5 ADD PUSH1 0x5 SHR DUP3 ADD SWAP2 POP JUMPDEST DUP2 DUP2 LT ISZERO PUSH2 0x45D JUMPI PUSH0 DUP2 SSTORE PUSH1 0x1 ADD PUSH2 0x44A JUMP JUMPDEST POP POP JUMPDEST POP POP POP JUMP JUMPDEST DUP2 MLOAD PUSH8 0xFFFFFFFFFFFFFFFF DUP2 GT ISZERO PUSH2 0x47F JUMPI PUSH2 0x47F PUSH2 0x265 JUMP JUMPDEST PUSH2 0x493 DUP2 PUSH2 0x48D DUP5 SLOAD PUSH2 0x3E1 JUMP JUMPDEST DUP5 PUSH2 0x419 JUMP JUMPDEST PUSH1 0x20 PUSH1 0x1F DUP3 GT PUSH1 0x1 DUP2 EQ PUSH2 0x4C5 JUMPI PUSH0 DUP4 ISZERO PUSH2 0x4AE JUMPI POP DUP5 DUP3 ADD MLOAD JUMPDEST PUSH0 NOT PUSH1 0x3 DUP6 SWAP1 SHL SHR NOT AND PUSH1 0x1 DUP5 SWAP1 SHL OR DUP5 SSTORE PUSH2 0x45D JUMP JUMPDEST PUSH0 DUP5 DUP2 MSTORE PUSH1 0x20 DUP2 KECCAK256 PUSH1 0x1F NOT DUP6 AND SWAP2 JUMPDEST DUP3 DUP2 LT ISZERO PUSH2 0x4F4 JUMPI DUP8 DUP6 ADD MLOAD DUP3 SSTORE PUSH1 0x20 SWAP5 DUP6 ADD SWAP5 PUSH1 0x1 SWAP1 SWAP3 ADD SWAP2 ADD PUSH2 0x4D4 JUMP JUMPDEST POP DUP5 DUP3 LT ISZERO PUSH2 0x511 JUMPI DUP7 DUP5 ADD MLOAD PUSH0 NOT PUSH1 0x3 DUP8 SWAP1 SHL PUSH1 0xF8 AND SHR NOT AND DUP2 SSTORE JUMPDEST POP POP POP POP PUSH1 0x1 SWAP1 DUP2 SHL ADD SWAP1 SSTORE POP JUMP JUMPDEST PUSH0 DUP3 MLOAD DUP1 PUSH1 0x20 DUP6 ADD DUP5 MCOPY PUSH0 SWAP3 ADD SWAP2 DUP3 MSTORE POP SWAP2 SWAP1 POP JUMP INVALID LOG2 PUSH5 0x6970667358 0x22 SLT KECCAK256 SWAP12 0xCD CALLDATASIZE MCOPY CALLDATACOPY PREVRANDAO 0xB0 SHL BALANCE DUP8 0xC7 DUP6 SWAP5 PREVRANDAO 0xB3 0xFC 0xD 0x27 PUSH14 0xA030F90C9DEF65B9543463EB5664 PUSH20 0x6F6C634300081E00330000000000000000000000 "
				},
				"gasEstimates": {
					"creation": {
						"codeDepositCost": "277600",
						"executionCost": "316",
						"totalCost": "277916"
					},
					"external": {
						"ListOfPeoples(uint256)": "infinite",
						"NAMEtoAGE(string)": "infinite",
						"addPerson(string,uint256)": "infinite",
						"retrieve()": "2247",
						"store(uint256)": "22399"
					}
				},
				"methodIdentifiers": {
					"ListOfPeoples(uint256)": "a6eb82e7",
					"NAMEtoAGE(string)": "ce65561c",
					"addPerson(string,uint256)": "6f760f41",
					"retrieve()": "2e64cec1",
					"store(uint256)": "6057361d"
				}
			},
			"storageLayout": {
				"storage": [
					{
						"astId": 30,
						"contract": "contracts/AddFiveStorage.sol:AddFiveStorage",
						"label": "ListOfPeoples",
						"offset": 0,
						"slot": "0",
						"type": "t_array(t_struct(Person)26_storage)dyn_storage"
					},
					{
						"astId": 34,
						"contract": "contracts/AddFiveStorage.sol:AddFiveStorage",
						"label": "NAMEtoAGE",
						"offset": 0,
						"slot": "1",
						"type": "t_mapping(t_string_memory_ptr,t_uint256)"
					},
					{
						"astId": 36,
						"contract": "contracts/AddFiveStorage.sol:AddFiveStorage",
						"label": "favoriteNumber",
						"offset": 0,
						"slot": "2",
						"type": "t_uint256"
					}
				],
				"types": {
					"t_array(t_struct(Person)26_storage)dyn_storage": {
						"base": "t_struct(Person)26_storage",
						"encoding": "dynamic_array",
						"label": "struct SimpleStorage.Person[]",
						"numberOfBytes": "32"
					},
					"t_mapping(t_string_memory_ptr,t_uint256)": {
						"encoding": "mapping",
						"key": "t_string_memory_ptr",
						"label": "mapping(string => uint256)",
						"numberOfBytes": "32",
						"value": "t_uint256"
					},
					"t_string_memory_ptr": {
						"encoding": "bytes",
						"label": "string",
						"numberOfBytes": "32"
					},
					"t_string_storage": {
						"encoding": "bytes",
						"label": "string",
						"numberOfBytes": "32"
					},
					"t_struct(Person)26_storage": {
						"encoding": "inplace",
						"label": "struct SimpleStorage.Person",
						"members": [
							{
								"astId": 23,
								"contract": "contracts/AddFiveStorage.sol:AddFiveStorage",
								"label": "age",
								"offset": 0,
								"slot": "0",
								"type": "t_uint256"
							},
							{
								"astId": 25,
								"contract": "contracts/AddFiveStorage.sol:AddFiveStorage",
								"label": "name",
								"offset": 0,
								"slot": "1",
								"type": "t_string_storage"
							}
						],
						"numberOfBytes": "64"
					},
					"t_uint256": {
						"encoding": "inplace",
						"label": "uint256",
						"numberOfBytes": "32"
					}
				}
			},
			"userdoc": {
				"kind": "user",
				"methods": {},
				"version": 1
			}
		}
	}
}